{
  "contracts/Port.sol": {
    "Port": {
      "abi": [
        {
          "inputs": [
            {
              "internalType": "string",
              "name": "_licenseImageURL",
              "type": "string"
            }
          ],
          "stateMutability": "nonpayable",
          "type": "constructor"
        },
        {
          "anonymous": false,
          "inputs": [
            {
              "indexed": false,
              "internalType": "address",
              "name": "nftContract",
              "type": "address"
            },
            {
              "indexed": false,
              "internalType": "uint256",
              "name": "tokenId",
              "type": "uint256"
            },
            {
              "indexed": false,
              "internalType": "address",
              "name": "creator",
              "type": "address"
            },
            {
              "indexed": false,
              "internalType": "address",
              "name": "user",
              "type": "address"
            },
            {
              "indexed": false,
              "internalType": "uint256",
              "name": "price",
              "type": "uint256"
            }
          ],
          "name": "LicenseCreated",
          "type": "event"
        },
        {
          "inputs": [],
          "name": "LICENSE_FEE",
          "outputs": [
            {
              "internalType": "uint256",
              "name": "",
              "type": "uint256"
            }
          ],
          "stateMutability": "view",
          "type": "function"
        },
        {
          "inputs": [
            {
              "internalType": "address",
              "name": "_nftContract",
              "type": "address"
            },
            {
              "internalType": "uint256",
              "name": "_tokenId",
              "type": "uint256"
            }
          ],
          "name": "createLicense",
          "outputs": [],
          "stateMutability": "payable",
          "type": "function"
        },
        {
          "inputs": [],
          "name": "getLicenseFee",
          "outputs": [
            {
              "internalType": "uint256",
              "name": "",
              "type": "uint256"
            }
          ],
          "stateMutability": "view",
          "type": "function"
        },
        {
          "inputs": [],
          "name": "readLicenseImageURL",
          "outputs": [
            {
              "internalType": "string",
              "name": "",
              "type": "string"
            }
          ],
          "stateMutability": "view",
          "type": "function"
        },
        {
          "inputs": [
            {
              "internalType": "string",
              "name": "newURL",
              "type": "string"
            }
          ],
          "name": "setLicenseImageURL",
          "outputs": [],
          "stateMutability": "nonpayable",
          "type": "function"
        }
      ],
      "evm": {
        "bytecode": {
          "linkReferences": {},
          "object": "6080604052655af3107a40006003553480156200001b57600080fd5b5060405162000de238038062000de28339818101604052810190620000419190620002f7565b600160008190555033600460006101000a81548173ffffffffffffffffffffffffffffffffffffffff021916908373ffffffffffffffffffffffffffffffffffffffff1602179055508060069080519060200190620000a2929190620000aa565b5050620003ad565b828054620000b89062000377565b90600052602060002090601f016020900481019282620000dc576000855562000128565b82601f10620000f757805160ff191683800117855562000128565b8280016001018555821562000128579182015b82811115620001275782518255916020019190600101906200010a565b5b5090506200013791906200013b565b5090565b5b80821115620001565760008160009055506001016200013c565b5090565b6000604051905090565b600080fd5b600080fd5b600080fd5b600080fd5b6000601f19601f8301169050919050565b7f4e487b7100000000000000000000000000000000000000000000000000000000600052604160045260246000fd5b620001c38262000178565b810181811067ffffffffffffffff82111715620001e557620001e462000189565b5b80604052505050565b6000620001fa6200015a565b9050620002088282620001b8565b919050565b600067ffffffffffffffff8211156200022b576200022a62000189565b5b620002368262000178565b9050602081019050919050565b60005b838110156200026357808201518184015260208101905062000246565b8381111562000273576000848401525b50505050565b6000620002906200028a846200020d565b620001ee565b905082815260208101848484011115620002af57620002ae62000173565b5b620002bc84828562000243565b509392505050565b600082601f830112620002dc57620002db6200016e565b5b8151620002ee84826020860162000279565b91505092915050565b60006020828403121562000310576200030f62000164565b5b600082015167ffffffffffffffff81111562000331576200033062000169565b5b6200033f84828501620002c4565b91505092915050565b7f4e487b7100000000000000000000000000000000000000000000000000000000600052602260045260246000fd5b600060028204905060018216806200039057607f821691505b60208210811415620003a757620003a662000348565b5b50919050565b610a2580620003bd6000396000f3fe60806040526004361061004a5760003560e01c80639fb5f67b1461004f578063a8e0253b1461007a578063d81fe70914610096578063f609215f146100c1578063fcbe7b33146100ea575b600080fd5b34801561005b57600080fd5b50610064610115565b604051610071919061049d565b60405180910390f35b610094600480360381019061008f9190610556565b61011f565b005b3480156100a257600080fd5b506100ab610319565b6040516100b8919061062f565b60405180910390f35b3480156100cd57600080fd5b506100e860048036038101906100e39190610786565b6103ab565b005b3480156100f657600080fd5b506100ff6103c5565b60405161010c919061049d565b60405180910390f35b6000600354905090565b60026000541415610165576040517f08c379a000000000000000000000000000000000000000000000000000000000815260040161015c9061081b565b60405180910390fd5b6002600081905550600060056000838152602001908152602001600020905080600401543410156101cb576040517f08c379a00000000000000000000000000000000000000000000000000000000081526004016101c2906108ad565b60405180910390fd5b6000339050600460009054906101000a900473ffffffffffffffffffffffffffffffffffffffff1673ffffffffffffffffffffffffffffffffffffffff166108fc6003549081150290604051600060405180830381858888f1935050505015801561023a573d6000803e3d6000fd5b50808260030160006101000a81548173ffffffffffffffffffffffffffffffffffffffff021916908373ffffffffffffffffffffffffffffffffffffffff16021790555060008260050160006101000a81548160ff0219169083151502179055506102a560016103cb565b7e82d6c6230b71ad8d7922b594838178c45a30c2f8cdac5c92e9233b8b71167d8483600101548460020160009054906101000a900473ffffffffffffffffffffffffffffffffffffffff16843460405161030395949392919061093b565b60405180910390a1505060016000819055505050565b606060068054610328906109bd565b80601f0160208091040260200160405190810160405280929190818152602001828054610354906109bd565b80156103a15780601f10610376576101008083540402835291602001916103a1565b820191906000526020600020905b81548152906001019060200180831161038457829003601f168201915b5050505050905090565b80600690805190602001906103c19291906103e1565b5050565b60035481565b6001816000016000828254019250508190555050565b8280546103ed906109bd565b90600052602060002090601f01602090048101928261040f5760008555610456565b82601f1061042857805160ff1916838001178555610456565b82800160010185558215610456579182015b8281111561045557825182559160200191906001019061043a565b5b5090506104639190610467565b5090565b5b80821115610480576000816000905550600101610468565b5090565b6000819050919050565b61049781610484565b82525050565b60006020820190506104b2600083018461048e565b92915050565b6000604051905090565b600080fd5b600080fd5b600073ffffffffffffffffffffffffffffffffffffffff82169050919050565b60006104f7826104cc565b9050919050565b610507816104ec565b811461051257600080fd5b50565b600081359050610524816104fe565b92915050565b61053381610484565b811461053e57600080fd5b50565b6000813590506105508161052a565b92915050565b6000806040838503121561056d5761056c6104c2565b5b600061057b85828601610515565b925050602061058c85828601610541565b9150509250929050565b600081519050919050565b600082825260208201905092915050565b60005b838110156105d05780820151818401526020810190506105b5565b838111156105df576000848401525b50505050565b6000601f19601f8301169050919050565b600061060182610596565b61060b81856105a1565b935061061b8185602086016105b2565b610624816105e5565b840191505092915050565b6000602082019050818103600083015261064981846105f6565b905092915050565b600080fd5b600080fd5b7f4e487b7100000000000000000000000000000000000000000000000000000000600052604160045260246000fd5b610693826105e5565b810181811067ffffffffffffffff821117156106b2576106b161065b565b5b80604052505050565b60006106c56104b8565b90506106d1828261068a565b919050565b600067ffffffffffffffff8211156106f1576106f061065b565b5b6106fa826105e5565b9050602081019050919050565b82818337600083830152505050565b6000610729610724846106d6565b6106bb565b90508281526020810184848401111561074557610744610656565b5b610750848285610707565b509392505050565b600082601f83011261076d5761076c610651565b5b813561077d848260208601610716565b91505092915050565b60006020828403121561079c5761079b6104c2565b5b600082013567ffffffffffffffff8111156107ba576107b96104c7565b5b6107c684828501610758565b91505092915050565b7f5265656e7472616e637947756172643a207265656e7472616e742063616c6c00600082015250565b6000610805601f836105a1565b9150610810826107cf565b602082019050919050565b60006020820190508181036000830152610834816107f8565b9050919050565b7f4e6f7420656e6f75676820657468657220746f20636f7665722061736b696e6760008201527f2070726963650000000000000000000000000000000000000000000000000000602082015250565b60006108976026836105a1565b91506108a28261083b565b604082019050919050565b600060208201905081810360008301526108c68161088a565b9050919050565b6108d6816104ec565b82525050565b6000819050919050565b60006109016108fc6108f7846104cc565b6108dc565b6104cc565b9050919050565b6000610913826108e6565b9050919050565b600061092582610908565b9050919050565b6109358161091a565b82525050565b600060a08201905061095060008301886108cd565b61095d602083018761048e565b61096a604083018661092c565b610977606083018561092c565b610984608083018461048e565b9695505050505050565b7f4e487b7100000000000000000000000000000000000000000000000000000000600052602260045260246000fd5b600060028204905060018216806109d557607f821691505b602082108114156109e9576109e861098e565b5b5091905056fea2646970667358221220c0a2706e927b33b97dd9dd1b220d7bc9a4d95d62002ff18b74901e7af4d79b0c64736f6c63430008090033",
          "opcodes": "PUSH1 0x80 PUSH1 0x40 MSTORE PUSH6 0x5AF3107A4000 PUSH1 0x3 SSTORE CALLVALUE DUP1 ISZERO PUSH3 0x1B JUMPI PUSH1 0x0 DUP1 REVERT JUMPDEST POP PUSH1 0x40 MLOAD PUSH3 0xDE2 CODESIZE SUB DUP1 PUSH3 0xDE2 DUP4 CODECOPY DUP2 DUP2 ADD PUSH1 0x40 MSTORE DUP2 ADD SWAP1 PUSH3 0x41 SWAP2 SWAP1 PUSH3 0x2F7 JUMP JUMPDEST PUSH1 0x1 PUSH1 0x0 DUP2 SWAP1 SSTORE POP CALLER PUSH1 0x4 PUSH1 0x0 PUSH2 0x100 EXP DUP2 SLOAD DUP2 PUSH20 0xFFFFFFFFFFFFFFFFFFFFFFFFFFFFFFFFFFFFFFFF MUL NOT AND SWAP1 DUP4 PUSH20 0xFFFFFFFFFFFFFFFFFFFFFFFFFFFFFFFFFFFFFFFF AND MUL OR SWAP1 SSTORE POP DUP1 PUSH1 0x6 SWAP1 DUP1 MLOAD SWAP1 PUSH1 0x20 ADD SWAP1 PUSH3 0xA2 SWAP3 SWAP2 SWAP1 PUSH3 0xAA JUMP JUMPDEST POP POP PUSH3 0x3AD JUMP JUMPDEST DUP3 DUP1 SLOAD PUSH3 0xB8 SWAP1 PUSH3 0x377 JUMP JUMPDEST SWAP1 PUSH1 0x0 MSTORE PUSH1 0x20 PUSH1 0x0 KECCAK256 SWAP1 PUSH1 0x1F ADD PUSH1 0x20 SWAP1 DIV DUP2 ADD SWAP3 DUP3 PUSH3 0xDC JUMPI PUSH1 0x0 DUP6 SSTORE PUSH3 0x128 JUMP JUMPDEST DUP3 PUSH1 0x1F LT PUSH3 0xF7 JUMPI DUP1 MLOAD PUSH1 0xFF NOT AND DUP4 DUP1 ADD OR DUP6 SSTORE PUSH3 0x128 JUMP JUMPDEST DUP3 DUP1 ADD PUSH1 0x1 ADD DUP6 SSTORE DUP3 ISZERO PUSH3 0x128 JUMPI SWAP2 DUP3 ADD JUMPDEST DUP3 DUP2 GT ISZERO PUSH3 0x127 JUMPI DUP3 MLOAD DUP3 SSTORE SWAP2 PUSH1 0x20 ADD SWAP2 SWAP1 PUSH1 0x1 ADD SWAP1 PUSH3 0x10A JUMP JUMPDEST JUMPDEST POP SWAP1 POP PUSH3 0x137 SWAP2 SWAP1 PUSH3 0x13B JUMP JUMPDEST POP SWAP1 JUMP JUMPDEST JUMPDEST DUP1 DUP3 GT ISZERO PUSH3 0x156 JUMPI PUSH1 0x0 DUP2 PUSH1 0x0 SWAP1 SSTORE POP PUSH1 0x1 ADD PUSH3 0x13C JUMP JUMPDEST POP SWAP1 JUMP JUMPDEST PUSH1 0x0 PUSH1 0x40 MLOAD SWAP1 POP SWAP1 JUMP JUMPDEST PUSH1 0x0 DUP1 REVERT JUMPDEST PUSH1 0x0 DUP1 REVERT JUMPDEST PUSH1 0x0 DUP1 REVERT JUMPDEST PUSH1 0x0 DUP1 REVERT JUMPDEST PUSH1 0x0 PUSH1 0x1F NOT PUSH1 0x1F DUP4 ADD AND SWAP1 POP SWAP2 SWAP1 POP JUMP JUMPDEST PUSH32 0x4E487B7100000000000000000000000000000000000000000000000000000000 PUSH1 0x0 MSTORE PUSH1 0x41 PUSH1 0x4 MSTORE PUSH1 0x24 PUSH1 0x0 REVERT JUMPDEST PUSH3 0x1C3 DUP3 PUSH3 0x178 JUMP JUMPDEST DUP2 ADD DUP2 DUP2 LT PUSH8 0xFFFFFFFFFFFFFFFF DUP3 GT OR ISZERO PUSH3 0x1E5 JUMPI PUSH3 0x1E4 PUSH3 0x189 JUMP JUMPDEST JUMPDEST DUP1 PUSH1 0x40 MSTORE POP POP POP JUMP JUMPDEST PUSH1 0x0 PUSH3 0x1FA PUSH3 0x15A JUMP JUMPDEST SWAP1 POP PUSH3 0x208 DUP3 DUP3 PUSH3 0x1B8 JUMP JUMPDEST SWAP2 SWAP1 POP JUMP JUMPDEST PUSH1 0x0 PUSH8 0xFFFFFFFFFFFFFFFF DUP3 GT ISZERO PUSH3 0x22B JUMPI PUSH3 0x22A PUSH3 0x189 JUMP JUMPDEST JUMPDEST PUSH3 0x236 DUP3 PUSH3 0x178 JUMP JUMPDEST SWAP1 POP PUSH1 0x20 DUP2 ADD SWAP1 POP SWAP2 SWAP1 POP JUMP JUMPDEST PUSH1 0x0 JUMPDEST DUP4 DUP2 LT ISZERO PUSH3 0x263 JUMPI DUP1 DUP3 ADD MLOAD DUP2 DUP5 ADD MSTORE PUSH1 0x20 DUP2 ADD SWAP1 POP PUSH3 0x246 JUMP JUMPDEST DUP4 DUP2 GT ISZERO PUSH3 0x273 JUMPI PUSH1 0x0 DUP5 DUP5 ADD MSTORE JUMPDEST POP POP POP POP JUMP JUMPDEST PUSH1 0x0 PUSH3 0x290 PUSH3 0x28A DUP5 PUSH3 0x20D JUMP JUMPDEST PUSH3 0x1EE JUMP JUMPDEST SWAP1 POP DUP3 DUP2 MSTORE PUSH1 0x20 DUP2 ADD DUP5 DUP5 DUP5 ADD GT ISZERO PUSH3 0x2AF JUMPI PUSH3 0x2AE PUSH3 0x173 JUMP JUMPDEST JUMPDEST PUSH3 0x2BC DUP5 DUP3 DUP6 PUSH3 0x243 JUMP JUMPDEST POP SWAP4 SWAP3 POP POP POP JUMP JUMPDEST PUSH1 0x0 DUP3 PUSH1 0x1F DUP4 ADD SLT PUSH3 0x2DC JUMPI PUSH3 0x2DB PUSH3 0x16E JUMP JUMPDEST JUMPDEST DUP2 MLOAD PUSH3 0x2EE DUP5 DUP3 PUSH1 0x20 DUP7 ADD PUSH3 0x279 JUMP JUMPDEST SWAP2 POP POP SWAP3 SWAP2 POP POP JUMP JUMPDEST PUSH1 0x0 PUSH1 0x20 DUP3 DUP5 SUB SLT ISZERO PUSH3 0x310 JUMPI PUSH3 0x30F PUSH3 0x164 JUMP JUMPDEST JUMPDEST PUSH1 0x0 DUP3 ADD MLOAD PUSH8 0xFFFFFFFFFFFFFFFF DUP2 GT ISZERO PUSH3 0x331 JUMPI PUSH3 0x330 PUSH3 0x169 JUMP JUMPDEST JUMPDEST PUSH3 0x33F DUP5 DUP3 DUP6 ADD PUSH3 0x2C4 JUMP JUMPDEST SWAP2 POP POP SWAP3 SWAP2 POP POP JUMP JUMPDEST PUSH32 0x4E487B7100000000000000000000000000000000000000000000000000000000 PUSH1 0x0 MSTORE PUSH1 0x22 PUSH1 0x4 MSTORE PUSH1 0x24 PUSH1 0x0 REVERT JUMPDEST PUSH1 0x0 PUSH1 0x2 DUP3 DIV SWAP1 POP PUSH1 0x1 DUP3 AND DUP1 PUSH3 0x390 JUMPI PUSH1 0x7F DUP3 AND SWAP2 POP JUMPDEST PUSH1 0x20 DUP3 LT DUP2 EQ ISZERO PUSH3 0x3A7 JUMPI PUSH3 0x3A6 PUSH3 0x348 JUMP JUMPDEST JUMPDEST POP SWAP2 SWAP1 POP JUMP JUMPDEST PUSH2 0xA25 DUP1 PUSH3 0x3BD PUSH1 0x0 CODECOPY PUSH1 0x0 RETURN INVALID PUSH1 0x80 PUSH1 0x40 MSTORE PUSH1 0x4 CALLDATASIZE LT PUSH2 0x4A JUMPI PUSH1 0x0 CALLDATALOAD PUSH1 0xE0 SHR DUP1 PUSH4 0x9FB5F67B EQ PUSH2 0x4F JUMPI DUP1 PUSH4 0xA8E0253B EQ PUSH2 0x7A JUMPI DUP1 PUSH4 0xD81FE709 EQ PUSH2 0x96 JUMPI DUP1 PUSH4 0xF609215F EQ PUSH2 0xC1 JUMPI DUP1 PUSH4 0xFCBE7B33 EQ PUSH2 0xEA JUMPI JUMPDEST PUSH1 0x0 DUP1 REVERT JUMPDEST CALLVALUE DUP1 ISZERO PUSH2 0x5B JUMPI PUSH1 0x0 DUP1 REVERT JUMPDEST POP PUSH2 0x64 PUSH2 0x115 JUMP JUMPDEST PUSH1 0x40 MLOAD PUSH2 0x71 SWAP2 SWAP1 PUSH2 0x49D JUMP JUMPDEST PUSH1 0x40 MLOAD DUP1 SWAP2 SUB SWAP1 RETURN JUMPDEST PUSH2 0x94 PUSH1 0x4 DUP1 CALLDATASIZE SUB DUP2 ADD SWAP1 PUSH2 0x8F SWAP2 SWAP1 PUSH2 0x556 JUMP JUMPDEST PUSH2 0x11F JUMP JUMPDEST STOP JUMPDEST CALLVALUE DUP1 ISZERO PUSH2 0xA2 JUMPI PUSH1 0x0 DUP1 REVERT JUMPDEST POP PUSH2 0xAB PUSH2 0x319 JUMP JUMPDEST PUSH1 0x40 MLOAD PUSH2 0xB8 SWAP2 SWAP1 PUSH2 0x62F JUMP JUMPDEST PUSH1 0x40 MLOAD DUP1 SWAP2 SUB SWAP1 RETURN JUMPDEST CALLVALUE DUP1 ISZERO PUSH2 0xCD JUMPI PUSH1 0x0 DUP1 REVERT JUMPDEST POP PUSH2 0xE8 PUSH1 0x4 DUP1 CALLDATASIZE SUB DUP2 ADD SWAP1 PUSH2 0xE3 SWAP2 SWAP1 PUSH2 0x786 JUMP JUMPDEST PUSH2 0x3AB JUMP JUMPDEST STOP JUMPDEST CALLVALUE DUP1 ISZERO PUSH2 0xF6 JUMPI PUSH1 0x0 DUP1 REVERT JUMPDEST POP PUSH2 0xFF PUSH2 0x3C5 JUMP JUMPDEST PUSH1 0x40 MLOAD PUSH2 0x10C SWAP2 SWAP1 PUSH2 0x49D JUMP JUMPDEST PUSH1 0x40 MLOAD DUP1 SWAP2 SUB SWAP1 RETURN JUMPDEST PUSH1 0x0 PUSH1 0x3 SLOAD SWAP1 POP SWAP1 JUMP JUMPDEST PUSH1 0x2 PUSH1 0x0 SLOAD EQ ISZERO PUSH2 0x165 JUMPI PUSH1 0x40 MLOAD PUSH32 0x8C379A000000000000000000000000000000000000000000000000000000000 DUP2 MSTORE PUSH1 0x4 ADD PUSH2 0x15C SWAP1 PUSH2 0x81B JUMP JUMPDEST PUSH1 0x40 MLOAD DUP1 SWAP2 SUB SWAP1 REVERT JUMPDEST PUSH1 0x2 PUSH1 0x0 DUP2 SWAP1 SSTORE POP PUSH1 0x0 PUSH1 0x5 PUSH1 0x0 DUP4 DUP2 MSTORE PUSH1 0x20 ADD SWAP1 DUP2 MSTORE PUSH1 0x20 ADD PUSH1 0x0 KECCAK256 SWAP1 POP DUP1 PUSH1 0x4 ADD SLOAD CALLVALUE LT ISZERO PUSH2 0x1CB JUMPI PUSH1 0x40 MLOAD PUSH32 0x8C379A000000000000000000000000000000000000000000000000000000000 DUP2 MSTORE PUSH1 0x4 ADD PUSH2 0x1C2 SWAP1 PUSH2 0x8AD JUMP JUMPDEST PUSH1 0x40 MLOAD DUP1 SWAP2 SUB SWAP1 REVERT JUMPDEST PUSH1 0x0 CALLER SWAP1 POP PUSH1 0x4 PUSH1 0x0 SWAP1 SLOAD SWAP1 PUSH2 0x100 EXP SWAP1 DIV PUSH20 0xFFFFFFFFFFFFFFFFFFFFFFFFFFFFFFFFFFFFFFFF AND PUSH20 0xFFFFFFFFFFFFFFFFFFFFFFFFFFFFFFFFFFFFFFFF AND PUSH2 0x8FC PUSH1 0x3 SLOAD SWAP1 DUP2 ISZERO MUL SWAP1 PUSH1 0x40 MLOAD PUSH1 0x0 PUSH1 0x40 MLOAD DUP1 DUP4 SUB DUP2 DUP6 DUP9 DUP9 CALL SWAP4 POP POP POP POP ISZERO DUP1 ISZERO PUSH2 0x23A JUMPI RETURNDATASIZE PUSH1 0x0 DUP1 RETURNDATACOPY RETURNDATASIZE PUSH1 0x0 REVERT JUMPDEST POP DUP1 DUP3 PUSH1 0x3 ADD PUSH1 0x0 PUSH2 0x100 EXP DUP2 SLOAD DUP2 PUSH20 0xFFFFFFFFFFFFFFFFFFFFFFFFFFFFFFFFFFFFFFFF MUL NOT AND SWAP1 DUP4 PUSH20 0xFFFFFFFFFFFFFFFFFFFFFFFFFFFFFFFFFFFFFFFF AND MUL OR SWAP1 SSTORE POP PUSH1 0x0 DUP3 PUSH1 0x5 ADD PUSH1 0x0 PUSH2 0x100 EXP DUP2 SLOAD DUP2 PUSH1 0xFF MUL NOT AND SWAP1 DUP4 ISZERO ISZERO MUL OR SWAP1 SSTORE POP PUSH2 0x2A5 PUSH1 0x1 PUSH2 0x3CB JUMP JUMPDEST PUSH31 0x82D6C6230B71AD8D7922B594838178C45A30C2F8CDAC5C92E9233B8B71167D DUP5 DUP4 PUSH1 0x1 ADD SLOAD DUP5 PUSH1 0x2 ADD PUSH1 0x0 SWAP1 SLOAD SWAP1 PUSH2 0x100 EXP SWAP1 DIV PUSH20 0xFFFFFFFFFFFFFFFFFFFFFFFFFFFFFFFFFFFFFFFF AND DUP5 CALLVALUE PUSH1 0x40 MLOAD PUSH2 0x303 SWAP6 SWAP5 SWAP4 SWAP3 SWAP2 SWAP1 PUSH2 0x93B JUMP JUMPDEST PUSH1 0x40 MLOAD DUP1 SWAP2 SUB SWAP1 LOG1 POP POP PUSH1 0x1 PUSH1 0x0 DUP2 SWAP1 SSTORE POP POP POP JUMP JUMPDEST PUSH1 0x60 PUSH1 0x6 DUP1 SLOAD PUSH2 0x328 SWAP1 PUSH2 0x9BD JUMP JUMPDEST DUP1 PUSH1 0x1F ADD PUSH1 0x20 DUP1 SWAP2 DIV MUL PUSH1 0x20 ADD PUSH1 0x40 MLOAD SWAP1 DUP2 ADD PUSH1 0x40 MSTORE DUP1 SWAP3 SWAP2 SWAP1 DUP2 DUP2 MSTORE PUSH1 0x20 ADD DUP3 DUP1 SLOAD PUSH2 0x354 SWAP1 PUSH2 0x9BD JUMP JUMPDEST DUP1 ISZERO PUSH2 0x3A1 JUMPI DUP1 PUSH1 0x1F LT PUSH2 0x376 JUMPI PUSH2 0x100 DUP1 DUP4 SLOAD DIV MUL DUP4 MSTORE SWAP2 PUSH1 0x20 ADD SWAP2 PUSH2 0x3A1 JUMP JUMPDEST DUP3 ADD SWAP2 SWAP1 PUSH1 0x0 MSTORE PUSH1 0x20 PUSH1 0x0 KECCAK256 SWAP1 JUMPDEST DUP2 SLOAD DUP2 MSTORE SWAP1 PUSH1 0x1 ADD SWAP1 PUSH1 0x20 ADD DUP1 DUP4 GT PUSH2 0x384 JUMPI DUP3 SWAP1 SUB PUSH1 0x1F AND DUP3 ADD SWAP2 JUMPDEST POP POP POP POP POP SWAP1 POP SWAP1 JUMP JUMPDEST DUP1 PUSH1 0x6 SWAP1 DUP1 MLOAD SWAP1 PUSH1 0x20 ADD SWAP1 PUSH2 0x3C1 SWAP3 SWAP2 SWAP1 PUSH2 0x3E1 JUMP JUMPDEST POP POP JUMP JUMPDEST PUSH1 0x3 SLOAD DUP2 JUMP JUMPDEST PUSH1 0x1 DUP2 PUSH1 0x0 ADD PUSH1 0x0 DUP3 DUP3 SLOAD ADD SWAP3 POP POP DUP2 SWAP1 SSTORE POP POP JUMP JUMPDEST DUP3 DUP1 SLOAD PUSH2 0x3ED SWAP1 PUSH2 0x9BD JUMP JUMPDEST SWAP1 PUSH1 0x0 MSTORE PUSH1 0x20 PUSH1 0x0 KECCAK256 SWAP1 PUSH1 0x1F ADD PUSH1 0x20 SWAP1 DIV DUP2 ADD SWAP3 DUP3 PUSH2 0x40F JUMPI PUSH1 0x0 DUP6 SSTORE PUSH2 0x456 JUMP JUMPDEST DUP3 PUSH1 0x1F LT PUSH2 0x428 JUMPI DUP1 MLOAD PUSH1 0xFF NOT AND DUP4 DUP1 ADD OR DUP6 SSTORE PUSH2 0x456 JUMP JUMPDEST DUP3 DUP1 ADD PUSH1 0x1 ADD DUP6 SSTORE DUP3 ISZERO PUSH2 0x456 JUMPI SWAP2 DUP3 ADD JUMPDEST DUP3 DUP2 GT ISZERO PUSH2 0x455 JUMPI DUP3 MLOAD DUP3 SSTORE SWAP2 PUSH1 0x20 ADD SWAP2 SWAP1 PUSH1 0x1 ADD SWAP1 PUSH2 0x43A JUMP JUMPDEST JUMPDEST POP SWAP1 POP PUSH2 0x463 SWAP2 SWAP1 PUSH2 0x467 JUMP JUMPDEST POP SWAP1 JUMP JUMPDEST JUMPDEST DUP1 DUP3 GT ISZERO PUSH2 0x480 JUMPI PUSH1 0x0 DUP2 PUSH1 0x0 SWAP1 SSTORE POP PUSH1 0x1 ADD PUSH2 0x468 JUMP JUMPDEST POP SWAP1 JUMP JUMPDEST PUSH1 0x0 DUP2 SWAP1 POP SWAP2 SWAP1 POP JUMP JUMPDEST PUSH2 0x497 DUP2 PUSH2 0x484 JUMP JUMPDEST DUP3 MSTORE POP POP JUMP JUMPDEST PUSH1 0x0 PUSH1 0x20 DUP3 ADD SWAP1 POP PUSH2 0x4B2 PUSH1 0x0 DUP4 ADD DUP5 PUSH2 0x48E JUMP JUMPDEST SWAP3 SWAP2 POP POP JUMP JUMPDEST PUSH1 0x0 PUSH1 0x40 MLOAD SWAP1 POP SWAP1 JUMP JUMPDEST PUSH1 0x0 DUP1 REVERT JUMPDEST PUSH1 0x0 DUP1 REVERT JUMPDEST PUSH1 0x0 PUSH20 0xFFFFFFFFFFFFFFFFFFFFFFFFFFFFFFFFFFFFFFFF DUP3 AND SWAP1 POP SWAP2 SWAP1 POP JUMP JUMPDEST PUSH1 0x0 PUSH2 0x4F7 DUP3 PUSH2 0x4CC JUMP JUMPDEST SWAP1 POP SWAP2 SWAP1 POP JUMP JUMPDEST PUSH2 0x507 DUP2 PUSH2 0x4EC JUMP JUMPDEST DUP2 EQ PUSH2 0x512 JUMPI PUSH1 0x0 DUP1 REVERT JUMPDEST POP JUMP JUMPDEST PUSH1 0x0 DUP2 CALLDATALOAD SWAP1 POP PUSH2 0x524 DUP2 PUSH2 0x4FE JUMP JUMPDEST SWAP3 SWAP2 POP POP JUMP JUMPDEST PUSH2 0x533 DUP2 PUSH2 0x484 JUMP JUMPDEST DUP2 EQ PUSH2 0x53E JUMPI PUSH1 0x0 DUP1 REVERT JUMPDEST POP JUMP JUMPDEST PUSH1 0x0 DUP2 CALLDATALOAD SWAP1 POP PUSH2 0x550 DUP2 PUSH2 0x52A JUMP JUMPDEST SWAP3 SWAP2 POP POP JUMP JUMPDEST PUSH1 0x0 DUP1 PUSH1 0x40 DUP4 DUP6 SUB SLT ISZERO PUSH2 0x56D JUMPI PUSH2 0x56C PUSH2 0x4C2 JUMP JUMPDEST JUMPDEST PUSH1 0x0 PUSH2 0x57B DUP6 DUP3 DUP7 ADD PUSH2 0x515 JUMP JUMPDEST SWAP3 POP POP PUSH1 0x20 PUSH2 0x58C DUP6 DUP3 DUP7 ADD PUSH2 0x541 JUMP JUMPDEST SWAP2 POP POP SWAP3 POP SWAP3 SWAP1 POP JUMP JUMPDEST PUSH1 0x0 DUP2 MLOAD SWAP1 POP SWAP2 SWAP1 POP JUMP JUMPDEST PUSH1 0x0 DUP3 DUP3 MSTORE PUSH1 0x20 DUP3 ADD SWAP1 POP SWAP3 SWAP2 POP POP JUMP JUMPDEST PUSH1 0x0 JUMPDEST DUP4 DUP2 LT ISZERO PUSH2 0x5D0 JUMPI DUP1 DUP3 ADD MLOAD DUP2 DUP5 ADD MSTORE PUSH1 0x20 DUP2 ADD SWAP1 POP PUSH2 0x5B5 JUMP JUMPDEST DUP4 DUP2 GT ISZERO PUSH2 0x5DF JUMPI PUSH1 0x0 DUP5 DUP5 ADD MSTORE JUMPDEST POP POP POP POP JUMP JUMPDEST PUSH1 0x0 PUSH1 0x1F NOT PUSH1 0x1F DUP4 ADD AND SWAP1 POP SWAP2 SWAP1 POP JUMP JUMPDEST PUSH1 0x0 PUSH2 0x601 DUP3 PUSH2 0x596 JUMP JUMPDEST PUSH2 0x60B DUP2 DUP6 PUSH2 0x5A1 JUMP JUMPDEST SWAP4 POP PUSH2 0x61B DUP2 DUP6 PUSH1 0x20 DUP7 ADD PUSH2 0x5B2 JUMP JUMPDEST PUSH2 0x624 DUP2 PUSH2 0x5E5 JUMP JUMPDEST DUP5 ADD SWAP2 POP POP SWAP3 SWAP2 POP POP JUMP JUMPDEST PUSH1 0x0 PUSH1 0x20 DUP3 ADD SWAP1 POP DUP2 DUP2 SUB PUSH1 0x0 DUP4 ADD MSTORE PUSH2 0x649 DUP2 DUP5 PUSH2 0x5F6 JUMP JUMPDEST SWAP1 POP SWAP3 SWAP2 POP POP JUMP JUMPDEST PUSH1 0x0 DUP1 REVERT JUMPDEST PUSH1 0x0 DUP1 REVERT JUMPDEST PUSH32 0x4E487B7100000000000000000000000000000000000000000000000000000000 PUSH1 0x0 MSTORE PUSH1 0x41 PUSH1 0x4 MSTORE PUSH1 0x24 PUSH1 0x0 REVERT JUMPDEST PUSH2 0x693 DUP3 PUSH2 0x5E5 JUMP JUMPDEST DUP2 ADD DUP2 DUP2 LT PUSH8 0xFFFFFFFFFFFFFFFF DUP3 GT OR ISZERO PUSH2 0x6B2 JUMPI PUSH2 0x6B1 PUSH2 0x65B JUMP JUMPDEST JUMPDEST DUP1 PUSH1 0x40 MSTORE POP POP POP JUMP JUMPDEST PUSH1 0x0 PUSH2 0x6C5 PUSH2 0x4B8 JUMP JUMPDEST SWAP1 POP PUSH2 0x6D1 DUP3 DUP3 PUSH2 0x68A JUMP JUMPDEST SWAP2 SWAP1 POP JUMP JUMPDEST PUSH1 0x0 PUSH8 0xFFFFFFFFFFFFFFFF DUP3 GT ISZERO PUSH2 0x6F1 JUMPI PUSH2 0x6F0 PUSH2 0x65B JUMP JUMPDEST JUMPDEST PUSH2 0x6FA DUP3 PUSH2 0x5E5 JUMP JUMPDEST SWAP1 POP PUSH1 0x20 DUP2 ADD SWAP1 POP SWAP2 SWAP1 POP JUMP JUMPDEST DUP3 DUP2 DUP4 CALLDATACOPY PUSH1 0x0 DUP4 DUP4 ADD MSTORE POP POP POP JUMP JUMPDEST PUSH1 0x0 PUSH2 0x729 PUSH2 0x724 DUP5 PUSH2 0x6D6 JUMP JUMPDEST PUSH2 0x6BB JUMP JUMPDEST SWAP1 POP DUP3 DUP2 MSTORE PUSH1 0x20 DUP2 ADD DUP5 DUP5 DUP5 ADD GT ISZERO PUSH2 0x745 JUMPI PUSH2 0x744 PUSH2 0x656 JUMP JUMPDEST JUMPDEST PUSH2 0x750 DUP5 DUP3 DUP6 PUSH2 0x707 JUMP JUMPDEST POP SWAP4 SWAP3 POP POP POP JUMP JUMPDEST PUSH1 0x0 DUP3 PUSH1 0x1F DUP4 ADD SLT PUSH2 0x76D JUMPI PUSH2 0x76C PUSH2 0x651 JUMP JUMPDEST JUMPDEST DUP2 CALLDATALOAD PUSH2 0x77D DUP5 DUP3 PUSH1 0x20 DUP7 ADD PUSH2 0x716 JUMP JUMPDEST SWAP2 POP POP SWAP3 SWAP2 POP POP JUMP JUMPDEST PUSH1 0x0 PUSH1 0x20 DUP3 DUP5 SUB SLT ISZERO PUSH2 0x79C JUMPI PUSH2 0x79B PUSH2 0x4C2 JUMP JUMPDEST JUMPDEST PUSH1 0x0 DUP3 ADD CALLDATALOAD PUSH8 0xFFFFFFFFFFFFFFFF DUP2 GT ISZERO PUSH2 0x7BA JUMPI PUSH2 0x7B9 PUSH2 0x4C7 JUMP JUMPDEST JUMPDEST PUSH2 0x7C6 DUP5 DUP3 DUP6 ADD PUSH2 0x758 JUMP JUMPDEST SWAP2 POP POP SWAP3 SWAP2 POP POP JUMP JUMPDEST PUSH32 0x5265656E7472616E637947756172643A207265656E7472616E742063616C6C00 PUSH1 0x0 DUP3 ADD MSTORE POP JUMP JUMPDEST PUSH1 0x0 PUSH2 0x805 PUSH1 0x1F DUP4 PUSH2 0x5A1 JUMP JUMPDEST SWAP2 POP PUSH2 0x810 DUP3 PUSH2 0x7CF JUMP JUMPDEST PUSH1 0x20 DUP3 ADD SWAP1 POP SWAP2 SWAP1 POP JUMP JUMPDEST PUSH1 0x0 PUSH1 0x20 DUP3 ADD SWAP1 POP DUP2 DUP2 SUB PUSH1 0x0 DUP4 ADD MSTORE PUSH2 0x834 DUP2 PUSH2 0x7F8 JUMP JUMPDEST SWAP1 POP SWAP2 SWAP1 POP JUMP JUMPDEST PUSH32 0x4E6F7420656E6F75676820657468657220746F20636F7665722061736B696E67 PUSH1 0x0 DUP3 ADD MSTORE PUSH32 0x2070726963650000000000000000000000000000000000000000000000000000 PUSH1 0x20 DUP3 ADD MSTORE POP JUMP JUMPDEST PUSH1 0x0 PUSH2 0x897 PUSH1 0x26 DUP4 PUSH2 0x5A1 JUMP JUMPDEST SWAP2 POP PUSH2 0x8A2 DUP3 PUSH2 0x83B JUMP JUMPDEST PUSH1 0x40 DUP3 ADD SWAP1 POP SWAP2 SWAP1 POP JUMP JUMPDEST PUSH1 0x0 PUSH1 0x20 DUP3 ADD SWAP1 POP DUP2 DUP2 SUB PUSH1 0x0 DUP4 ADD MSTORE PUSH2 0x8C6 DUP2 PUSH2 0x88A JUMP JUMPDEST SWAP1 POP SWAP2 SWAP1 POP JUMP JUMPDEST PUSH2 0x8D6 DUP2 PUSH2 0x4EC JUMP JUMPDEST DUP3 MSTORE POP POP JUMP JUMPDEST PUSH1 0x0 DUP2 SWAP1 POP SWAP2 SWAP1 POP JUMP JUMPDEST PUSH1 0x0 PUSH2 0x901 PUSH2 0x8FC PUSH2 0x8F7 DUP5 PUSH2 0x4CC JUMP JUMPDEST PUSH2 0x8DC JUMP JUMPDEST PUSH2 0x4CC JUMP JUMPDEST SWAP1 POP SWAP2 SWAP1 POP JUMP JUMPDEST PUSH1 0x0 PUSH2 0x913 DUP3 PUSH2 0x8E6 JUMP JUMPDEST SWAP1 POP SWAP2 SWAP1 POP JUMP JUMPDEST PUSH1 0x0 PUSH2 0x925 DUP3 PUSH2 0x908 JUMP JUMPDEST SWAP1 POP SWAP2 SWAP1 POP JUMP JUMPDEST PUSH2 0x935 DUP2 PUSH2 0x91A JUMP JUMPDEST DUP3 MSTORE POP POP JUMP JUMPDEST PUSH1 0x0 PUSH1 0xA0 DUP3 ADD SWAP1 POP PUSH2 0x950 PUSH1 0x0 DUP4 ADD DUP9 PUSH2 0x8CD JUMP JUMPDEST PUSH2 0x95D PUSH1 0x20 DUP4 ADD DUP8 PUSH2 0x48E JUMP JUMPDEST PUSH2 0x96A PUSH1 0x40 DUP4 ADD DUP7 PUSH2 0x92C JUMP JUMPDEST PUSH2 0x977 PUSH1 0x60 DUP4 ADD DUP6 PUSH2 0x92C JUMP JUMPDEST PUSH2 0x984 PUSH1 0x80 DUP4 ADD DUP5 PUSH2 0x48E JUMP JUMPDEST SWAP7 SWAP6 POP POP POP POP POP POP JUMP JUMPDEST PUSH32 0x4E487B7100000000000000000000000000000000000000000000000000000000 PUSH1 0x0 MSTORE PUSH1 0x22 PUSH1 0x4 MSTORE PUSH1 0x24 PUSH1 0x0 REVERT JUMPDEST PUSH1 0x0 PUSH1 0x2 DUP3 DIV SWAP1 POP PUSH1 0x1 DUP3 AND DUP1 PUSH2 0x9D5 JUMPI PUSH1 0x7F DUP3 AND SWAP2 POP JUMPDEST PUSH1 0x20 DUP3 LT DUP2 EQ ISZERO PUSH2 0x9E9 JUMPI PUSH2 0x9E8 PUSH2 0x98E JUMP JUMPDEST JUMPDEST POP SWAP2 SWAP1 POP JUMP INVALID LOG2 PUSH5 0x6970667358 0x22 SLT KECCAK256 0xC0 LOG2 PUSH17 0x6E927B33B97DD9DD1B220D7BC9A4D95D62 STOP 0x2F CALL DUP12 PUSH21 0x901E7AF4D79B0C64736F6C63430008090033000000 "
        },
        "methodIdentifiers": {
          "LICENSE_FEE()": "fcbe7b33",
          "createLicense(address,uint256)": "a8e0253b",
          "getLicenseFee()": "9fb5f67b",
          "readLicenseImageURL()": "d81fe709",
          "setLicenseImageURL(string)": "f609215f"
        }
      }
    }
  }
}