{
  "_format": "hh-sol-artifact-1",
  "contractName": "Port",
  "sourceName": "contracts/Port.sol",
  "abi": [
    {
      "inputs": [
        {
          "internalType": "string",
          "name": "_licenseImageURL",
          "type": "string"
        }
      ],
      "stateMutability": "nonpayable",
      "type": "constructor"
    },
    {
      "anonymous": false,
      "inputs": [
        {
          "indexed": false,
          "internalType": "address",
          "name": "nftContract",
          "type": "address"
        },
        {
          "indexed": false,
          "internalType": "uint256",
          "name": "tokenId",
          "type": "uint256"
        },
        {
          "indexed": false,
          "internalType": "address",
          "name": "creator",
          "type": "address"
        },
        {
          "indexed": false,
          "internalType": "address",
          "name": "user",
          "type": "address"
        },
        {
          "indexed": false,
          "internalType": "uint256",
          "name": "price",
          "type": "uint256"
        }
      ],
      "name": "LicenseCreated",
      "type": "event"
    },
    {
      "inputs": [],
      "name": "LICENSE_FEE",
      "outputs": [
        {
          "internalType": "uint256",
          "name": "",
          "type": "uint256"
        }
      ],
      "stateMutability": "view",
      "type": "function"
    },
    {
      "inputs": [
        {
          "internalType": "address",
          "name": "_nftContract",
          "type": "address"
        },
        {
          "internalType": "uint256",
          "name": "_tokenId",
          "type": "uint256"
        }
      ],
      "name": "createLicense",
      "outputs": [],
      "stateMutability": "payable",
      "type": "function"
    },
    {
      "inputs": [],
      "name": "getLicenseFee",
      "outputs": [
        {
          "internalType": "uint256",
          "name": "",
          "type": "uint256"
        }
      ],
      "stateMutability": "view",
      "type": "function"
    },
    {
      "inputs": [],
      "name": "readLicenseImageURL",
      "outputs": [
        {
          "internalType": "string",
          "name": "",
          "type": "string"
        }
      ],
      "stateMutability": "view",
      "type": "function"
    },
    {
      "inputs": [
        {
          "internalType": "string",
          "name": "newURL",
          "type": "string"
        }
      ],
      "name": "setLicenseImageURL",
      "outputs": [],
      "stateMutability": "nonpayable",
      "type": "function"
    }
  ],
  "bytecode": "0x6080604052655af3107a40006003553480156200001b57600080fd5b5060405162000de238038062000de28339818101604052810190620000419190620002f7565b600160008190555033600460006101000a81548173ffffffffffffffffffffffffffffffffffffffff021916908373ffffffffffffffffffffffffffffffffffffffff1602179055508060069080519060200190620000a2929190620000aa565b5050620003ad565b828054620000b89062000377565b90600052602060002090601f016020900481019282620000dc576000855562000128565b82601f10620000f757805160ff191683800117855562000128565b8280016001018555821562000128579182015b82811115620001275782518255916020019190600101906200010a565b5b5090506200013791906200013b565b5090565b5b80821115620001565760008160009055506001016200013c565b5090565b6000604051905090565b600080fd5b600080fd5b600080fd5b600080fd5b6000601f19601f8301169050919050565b7f4e487b7100000000000000000000000000000000000000000000000000000000600052604160045260246000fd5b620001c38262000178565b810181811067ffffffffffffffff82111715620001e557620001e462000189565b5b80604052505050565b6000620001fa6200015a565b9050620002088282620001b8565b919050565b600067ffffffffffffffff8211156200022b576200022a62000189565b5b620002368262000178565b9050602081019050919050565b60005b838110156200026357808201518184015260208101905062000246565b8381111562000273576000848401525b50505050565b6000620002906200028a846200020d565b620001ee565b905082815260208101848484011115620002af57620002ae62000173565b5b620002bc84828562000243565b509392505050565b600082601f830112620002dc57620002db6200016e565b5b8151620002ee84826020860162000279565b91505092915050565b60006020828403121562000310576200030f62000164565b5b600082015167ffffffffffffffff81111562000331576200033062000169565b5b6200033f84828501620002c4565b91505092915050565b7f4e487b7100000000000000000000000000000000000000000000000000000000600052602260045260246000fd5b600060028204905060018216806200039057607f821691505b60208210811415620003a757620003a662000348565b5b50919050565b610a2580620003bd6000396000f3fe60806040526004361061004a5760003560e01c80639fb5f67b1461004f578063a8e0253b1461007a578063d81fe70914610096578063f609215f146100c1578063fcbe7b33146100ea575b600080fd5b34801561005b57600080fd5b50610064610115565b604051610071919061049d565b60405180910390f35b610094600480360381019061008f9190610556565b61011f565b005b3480156100a257600080fd5b506100ab610319565b6040516100b8919061062f565b60405180910390f35b3480156100cd57600080fd5b506100e860048036038101906100e39190610786565b6103ab565b005b3480156100f657600080fd5b506100ff6103c5565b60405161010c919061049d565b60405180910390f35b6000600354905090565b60026000541415610165576040517f08c379a000000000000000000000000000000000000000000000000000000000815260040161015c9061081b565b60405180910390fd5b6002600081905550600060056000838152602001908152602001600020905080600401543410156101cb576040517f08c379a00000000000000000000000000000000000000000000000000000000081526004016101c2906108ad565b60405180910390fd5b6000339050600460009054906101000a900473ffffffffffffffffffffffffffffffffffffffff1673ffffffffffffffffffffffffffffffffffffffff166108fc6003549081150290604051600060405180830381858888f1935050505015801561023a573d6000803e3d6000fd5b50808260030160006101000a81548173ffffffffffffffffffffffffffffffffffffffff021916908373ffffffffffffffffffffffffffffffffffffffff16021790555060008260050160006101000a81548160ff0219169083151502179055506102a560016103cb565b7e82d6c6230b71ad8d7922b594838178c45a30c2f8cdac5c92e9233b8b71167d8483600101548460020160009054906101000a900473ffffffffffffffffffffffffffffffffffffffff16843460405161030395949392919061093b565b60405180910390a1505060016000819055505050565b606060068054610328906109bd565b80601f0160208091040260200160405190810160405280929190818152602001828054610354906109bd565b80156103a15780601f10610376576101008083540402835291602001916103a1565b820191906000526020600020905b81548152906001019060200180831161038457829003601f168201915b5050505050905090565b80600690805190602001906103c19291906103e1565b5050565b60035481565b6001816000016000828254019250508190555050565b8280546103ed906109bd565b90600052602060002090601f01602090048101928261040f5760008555610456565b82601f1061042857805160ff1916838001178555610456565b82800160010185558215610456579182015b8281111561045557825182559160200191906001019061043a565b5b5090506104639190610467565b5090565b5b80821115610480576000816000905550600101610468565b5090565b6000819050919050565b61049781610484565b82525050565b60006020820190506104b2600083018461048e565b92915050565b6000604051905090565b600080fd5b600080fd5b600073ffffffffffffffffffffffffffffffffffffffff82169050919050565b60006104f7826104cc565b9050919050565b610507816104ec565b811461051257600080fd5b50565b600081359050610524816104fe565b92915050565b61053381610484565b811461053e57600080fd5b50565b6000813590506105508161052a565b92915050565b6000806040838503121561056d5761056c6104c2565b5b600061057b85828601610515565b925050602061058c85828601610541565b9150509250929050565b600081519050919050565b600082825260208201905092915050565b60005b838110156105d05780820151818401526020810190506105b5565b838111156105df576000848401525b50505050565b6000601f19601f8301169050919050565b600061060182610596565b61060b81856105a1565b935061061b8185602086016105b2565b610624816105e5565b840191505092915050565b6000602082019050818103600083015261064981846105f6565b905092915050565b600080fd5b600080fd5b7f4e487b7100000000000000000000000000000000000000000000000000000000600052604160045260246000fd5b610693826105e5565b810181811067ffffffffffffffff821117156106b2576106b161065b565b5b80604052505050565b60006106c56104b8565b90506106d1828261068a565b919050565b600067ffffffffffffffff8211156106f1576106f061065b565b5b6106fa826105e5565b9050602081019050919050565b82818337600083830152505050565b6000610729610724846106d6565b6106bb565b90508281526020810184848401111561074557610744610656565b5b610750848285610707565b509392505050565b600082601f83011261076d5761076c610651565b5b813561077d848260208601610716565b91505092915050565b60006020828403121561079c5761079b6104c2565b5b600082013567ffffffffffffffff8111156107ba576107b96104c7565b5b6107c684828501610758565b91505092915050565b7f5265656e7472616e637947756172643a207265656e7472616e742063616c6c00600082015250565b6000610805601f836105a1565b9150610810826107cf565b602082019050919050565b60006020820190508181036000830152610834816107f8565b9050919050565b7f4e6f7420656e6f75676820657468657220746f20636f7665722061736b696e6760008201527f2070726963650000000000000000000000000000000000000000000000000000602082015250565b60006108976026836105a1565b91506108a28261083b565b604082019050919050565b600060208201905081810360008301526108c68161088a565b9050919050565b6108d6816104ec565b82525050565b6000819050919050565b60006109016108fc6108f7846104cc565b6108dc565b6104cc565b9050919050565b6000610913826108e6565b9050919050565b600061092582610908565b9050919050565b6109358161091a565b82525050565b600060a08201905061095060008301886108cd565b61095d602083018761048e565b61096a604083018661092c565b610977606083018561092c565b610984608083018461048e565b9695505050505050565b7f4e487b7100000000000000000000000000000000000000000000000000000000600052602260045260246000fd5b600060028204905060018216806109d557607f821691505b602082108114156109e9576109e861098e565b5b5091905056fea2646970667358221220c0a2706e927b33b97dd9dd1b220d7bc9a4d95d62002ff18b74901e7af4d79b0c64736f6c63430008090033",
  "linkReferences": {},
  "deployedLinkReferences": {}
}