{
  "_format": "hh-sol-artifact-1",
  "contractName": "PortLicense",
  "sourceName": "contracts/PortLicense.sol",
  "abi": [
    {
      "inputs": [],
      "stateMutability": "nonpayable",
      "type": "constructor"
    },
    {
      "anonymous": false,
      "inputs": [
        {
          "indexed": true,
          "internalType": "address",
          "name": "owner",
          "type": "address"
        },
        {
          "indexed": true,
          "internalType": "address",
          "name": "approved",
          "type": "address"
        },
        {
          "indexed": true,
          "internalType": "uint256",
          "name": "tokenId",
          "type": "uint256"
        }
      ],
      "name": "Approval",
      "type": "event"
    },
    {
      "anonymous": false,
      "inputs": [
        {
          "indexed": true,
          "internalType": "address",
          "name": "owner",
          "type": "address"
        },
        {
          "indexed": true,
          "internalType": "address",
          "name": "operator",
          "type": "address"
        },
        {
          "indexed": false,
          "internalType": "bool",
          "name": "approved",
          "type": "bool"
        }
      ],
      "name": "ApprovalForAll",
      "type": "event"
    },
    {
      "anonymous": false,
      "inputs": [
        {
          "indexed": true,
          "internalType": "address",
          "name": "from",
          "type": "address"
        },
        {
          "indexed": true,
          "internalType": "address",
          "name": "to",
          "type": "address"
        },
        {
          "indexed": true,
          "internalType": "uint256",
          "name": "tokenId",
          "type": "uint256"
        }
      ],
      "name": "Transfer",
      "type": "event"
    },
    {
      "inputs": [
        {
          "internalType": "address",
          "name": "to",
          "type": "address"
        },
        {
          "internalType": "uint256",
          "name": "tokenId",
          "type": "uint256"
        }
      ],
      "name": "approve",
      "outputs": [],
      "stateMutability": "nonpayable",
      "type": "function"
    },
    {
      "inputs": [
        {
          "internalType": "address",
          "name": "owner",
          "type": "address"
        }
      ],
      "name": "balanceOf",
      "outputs": [
        {
          "internalType": "uint256",
          "name": "",
          "type": "uint256"
        }
      ],
      "stateMutability": "view",
      "type": "function"
    },
    {
      "inputs": [
        {
          "internalType": "uint256",
          "name": "tokenId",
          "type": "uint256"
        }
      ],
      "name": "getApproved",
      "outputs": [
        {
          "internalType": "address",
          "name": "",
          "type": "address"
        }
      ],
      "stateMutability": "view",
      "type": "function"
    },
    {
      "inputs": [
        {
          "internalType": "address",
          "name": "owner",
          "type": "address"
        },
        {
          "internalType": "address",
          "name": "operator",
          "type": "address"
        }
      ],
      "name": "isApprovedForAll",
      "outputs": [
        {
          "internalType": "bool",
          "name": "",
          "type": "bool"
        }
      ],
      "stateMutability": "view",
      "type": "function"
    },
    {
      "inputs": [
        {
          "internalType": "address",
          "name": "recipient",
          "type": "address"
        },
        {
          "internalType": "string",
          "name": "tokenURI",
          "type": "string"
        }
      ],
      "name": "mintNFT",
      "outputs": [
        {
          "internalType": "uint256",
          "name": "",
          "type": "uint256"
        }
      ],
      "stateMutability": "nonpayable",
      "type": "function"
    },
    {
      "inputs": [],
      "name": "name",
      "outputs": [
        {
          "internalType": "string",
          "name": "",
          "type": "string"
        }
      ],
      "stateMutability": "view",
      "type": "function"
    },
    {
      "inputs": [
        {
          "internalType": "uint256",
          "name": "tokenId",
          "type": "uint256"
        }
      ],
      "name": "ownerOf",
      "outputs": [
        {
          "internalType": "address",
          "name": "",
          "type": "address"
        }
      ],
      "stateMutability": "view",
      "type": "function"
    },
    {
      "inputs": [
        {
          "internalType": "address",
          "name": "from",
          "type": "address"
        },
        {
          "internalType": "address",
          "name": "to",
          "type": "address"
        },
        {
          "internalType": "uint256",
          "name": "tokenId",
          "type": "uint256"
        }
      ],
      "name": "safeTransferFrom",
      "outputs": [],
      "stateMutability": "nonpayable",
      "type": "function"
    },
    {
      "inputs": [
        {
          "internalType": "address",
          "name": "from",
          "type": "address"
        },
        {
          "internalType": "address",
          "name": "to",
          "type": "address"
        },
        {
          "internalType": "uint256",
          "name": "tokenId",
          "type": "uint256"
        },
        {
          "internalType": "bytes",
          "name": "data",
          "type": "bytes"
        }
      ],
      "name": "safeTransferFrom",
      "outputs": [],
      "stateMutability": "nonpayable",
      "type": "function"
    },
    {
      "inputs": [
        {
          "internalType": "address",
          "name": "operator",
          "type": "address"
        },
        {
          "internalType": "bool",
          "name": "approved",
          "type": "bool"
        }
      ],
      "name": "setApprovalForAll",
      "outputs": [],
      "stateMutability": "nonpayable",
      "type": "function"
    },
    {
      "inputs": [
        {
          "internalType": "bytes4",
          "name": "interfaceId",
          "type": "bytes4"
        }
      ],
      "name": "supportsInterface",
      "outputs": [
        {
          "internalType": "bool",
          "name": "",
          "type": "bool"
        }
      ],
      "stateMutability": "view",
      "type": "function"
    },
    {
      "inputs": [],
      "name": "symbol",
      "outputs": [
        {
          "internalType": "string",
          "name": "",
          "type": "string"
        }
      ],
      "stateMutability": "view",
      "type": "function"
    },
    {
      "inputs": [
        {
          "internalType": "uint256",
          "name": "tokenId",
          "type": "uint256"
        }
      ],
      "name": "tokenURI",
      "outputs": [
        {
          "internalType": "string",
          "name": "",
          "type": "string"
        }
      ],
      "stateMutability": "view",
      "type": "function"
    },
    {
      "inputs": [
        {
          "internalType": "address",
          "name": "from",
          "type": "address"
        },
        {
          "internalType": "address",
          "name": "to",
          "type": "address"
        },
        {
          "internalType": "uint256",
          "name": "tokenId",
          "type": "uint256"
        }
      ],
      "name": "transferFrom",
      "outputs": [],
      "stateMutability": "nonpayable",
      "type": "function"
    }
  ],
  "bytecode": "0x60806040523480156200001157600080fd5b506040518060400160405280600b81526020017f506f72744c6963656e73650000000000000000000000000000000000000000008152506040518060400160405280600381526020017f5448580000000000000000000000000000000000000000000000000000000000815250816000908051906020019062000096929190620000b8565b508060019080519060200190620000af929190620000b8565b505050620001cd565b828054620000c69062000197565b90600052602060002090601f016020900481019282620000ea576000855562000136565b82601f106200010557805160ff191683800117855562000136565b8280016001018555821562000136579182015b828111156200013557825182559160200191906001019062000118565b5b50905062000145919062000149565b5090565b5b80821115620001645760008160009055506001016200014a565b5090565b7f4e487b7100000000000000000000000000000000000000000000000000000000600052602260045260246000fd5b60006002820490506001821680620001b057607f821691505b60208210811415620001c757620001c662000168565b5b50919050565b6128a880620001dd6000396000f3fe608060405234801561001057600080fd5b50600436106100ea5760003560e01c806370a082311161008c578063b88d4fde11610066578063b88d4fde1461025b578063c87b56dd14610277578063e985e9c5146102a7578063eacabe14146102d7576100ea565b806370a08231146101f157806395d89b4114610221578063a22cb4651461023f576100ea565b8063095ea7b3116100c8578063095ea7b31461016d57806323b872dd1461018957806342842e0e146101a55780636352211e146101c1576100ea565b806301ffc9a7146100ef57806306fdde031461011f578063081812fc1461013d575b600080fd5b61010960048036038101906101049190611878565b610307565b60405161011691906118c0565b60405180910390f35b6101276103e9565b6040516101349190611974565b60405180910390f35b610157600480360381019061015291906119cc565b61047b565b6040516101649190611a3a565b60405180910390f35b61018760048036038101906101829190611a81565b6104c1565b005b6101a3600480360381019061019e9190611ac1565b6105d9565b005b6101bf60048036038101906101ba9190611ac1565b610639565b005b6101db60048036038101906101d691906119cc565b610659565b6040516101e89190611a3a565b60405180910390f35b61020b60048036038101906102069190611b14565b61070b565b6040516102189190611b50565b60405180910390f35b6102296107c3565b6040516102369190611974565b60405180910390f35b61025960048036038101906102549190611b97565b610855565b005b61027560048036038101906102709190611d0c565b61086b565b005b610291600480360381019061028c91906119cc565b6108cd565b60405161029e9190611974565b60405180910390f35b6102c160048036038101906102bc9190611d8f565b6109e0565b6040516102ce91906118c0565b60405180910390f35b6102f160048036038101906102ec9190611e70565b610a74565b6040516102fe9190611b50565b60405180910390f35b60007f80ac58cd000000000000000000000000000000000000000000000000000000007bffffffffffffffffffffffffffffffffffffffffffffffffffffffff1916827bffffffffffffffffffffffffffffffffffffffffffffffffffffffff191614806103d257507f5b5e139f000000000000000000000000000000000000000000000000000000007bffffffffffffffffffffffffffffffffffffffffffffffffffffffff1916827bffffffffffffffffffffffffffffffffffffffffffffffffffffffff1916145b806103e257506103e182610aac565b5b9050919050565b6060600080546103f890611efb565b80601f016020809104026020016040519081016040528092919081815260200182805461042490611efb565b80156104715780601f1061044657610100808354040283529160200191610471565b820191906000526020600020905b81548152906001019060200180831161045457829003601f168201915b5050505050905090565b600061048682610b16565b6004600083815260200190815260200160002060009054906101000a900473ffffffffffffffffffffffffffffffffffffffff169050919050565b60006104cc82610659565b90508073ffffffffffffffffffffffffffffffffffffffff168373ffffffffffffffffffffffffffffffffffffffff16141561053d576040517f08c379a000000000000000000000000000000000000000000000000000000000815260040161053490611f9f565b60405180910390fd5b8073ffffffffffffffffffffffffffffffffffffffff1661055c610b61565b73ffffffffffffffffffffffffffffffffffffffff16148061058b575061058a81610585610b61565b6109e0565b5b6105ca576040517f08c379a00000000000000000000000000000000000000000000000000000000081526004016105c190612031565b60405180910390fd5b6105d48383610b69565b505050565b6105ea6105e4610b61565b82610c22565b610629576040517f08c379a0000000000000000000000000000000000000000000000000000000008152600401610620906120c3565b60405180910390fd5b610634838383610cb7565b505050565b6106548383836040518060200160405280600081525061086b565b505050565b6000806002600084815260200190815260200160002060009054906101000a900473ffffffffffffffffffffffffffffffffffffffff169050600073ffffffffffffffffffffffffffffffffffffffff168173ffffffffffffffffffffffffffffffffffffffff161415610702576040517f08c379a00000000000000000000000000000000000000000000000000000000081526004016106f99061212f565b60405180910390fd5b80915050919050565b60008073ffffffffffffffffffffffffffffffffffffffff168273ffffffffffffffffffffffffffffffffffffffff16141561077c576040517f08c379a0000000000000000000000000000000000000000000000000000000008152600401610773906121c1565b60405180910390fd5b600360008373ffffffffffffffffffffffffffffffffffffffff1673ffffffffffffffffffffffffffffffffffffffff168152602001908152602001600020549050919050565b6060600180546107d290611efb565b80601f01602080910402602001604051908101604052809291908181526020018280546107fe90611efb565b801561084b5780601f106108205761010080835404028352916020019161084b565b820191906000526020600020905b81548152906001019060200180831161082e57829003601f168201915b5050505050905090565b610867610860610b61565b8383610f1e565b5050565b61087c610876610b61565b83610c22565b6108bb576040517f08c379a00000000000000000000000000000000000000000000000000000000081526004016108b2906120c3565b60405180910390fd5b6108c78484848461108b565b50505050565b60606108d882610b16565b60006006600084815260200190815260200160002080546108f890611efb565b80601f016020809104026020016040519081016040528092919081815260200182805461092490611efb565b80156109715780601f1061094657610100808354040283529160200191610971565b820191906000526020600020905b81548152906001019060200180831161095457829003601f168201915b5050505050905060006109826110e7565b90506000815114156109985781925050506109db565b6000825111156109cd5780826040516020016109b592919061221d565b604051602081830303815290604052925050506109db565b6109d6846110fe565b925050505b919050565b6000600560008473ffffffffffffffffffffffffffffffffffffffff1673ffffffffffffffffffffffffffffffffffffffff16815260200190815260200160002060008373ffffffffffffffffffffffffffffffffffffffff1673ffffffffffffffffffffffffffffffffffffffff16815260200190815260200160002060009054906101000a900460ff16905092915050565b6000610a806007611166565b6000610a8c600761117c565b9050610a98848261118a565b610aa28184611364565b8091505092915050565b60007f01ffc9a7000000000000000000000000000000000000000000000000000000007bffffffffffffffffffffffffffffffffffffffffffffffffffffffff1916827bffffffffffffffffffffffffffffffffffffffffffffffffffffffff1916149050919050565b610b1f816113d8565b610b5e576040517f08c379a0000000000000000000000000000000000000000000000000000000008152600401610b559061212f565b60405180910390fd5b50565b600033905090565b816004600083815260200190815260200160002060006101000a81548173ffffffffffffffffffffffffffffffffffffffff021916908373ffffffffffffffffffffffffffffffffffffffff160217905550808273ffffffffffffffffffffffffffffffffffffffff16610bdc83610659565b73ffffffffffffffffffffffffffffffffffffffff167f8c5be1e5ebec7d5bd14f71427d1e84f3dd0314c0f7b2291e5b200ac8c7c3b92560405160405180910390a45050565b600080610c2e83610659565b90508073ffffffffffffffffffffffffffffffffffffffff168473ffffffffffffffffffffffffffffffffffffffff161480610c705750610c6f81856109e0565b5b80610cae57508373ffffffffffffffffffffffffffffffffffffffff16610c968461047b565b73ffffffffffffffffffffffffffffffffffffffff16145b91505092915050565b8273ffffffffffffffffffffffffffffffffffffffff16610cd782610659565b73ffffffffffffffffffffffffffffffffffffffff1614610d2d576040517f08c379a0000000000000000000000000000000000000000000000000000000008152600401610d24906122b3565b60405180910390fd5b600073ffffffffffffffffffffffffffffffffffffffff168273ffffffffffffffffffffffffffffffffffffffff161415610d9d576040517f08c379a0000000000000000000000000000000000000000000000000000000008152600401610d9490612345565b60405180910390fd5b610da8838383611444565b610db3600082610b69565b6001600360008573ffffffffffffffffffffffffffffffffffffffff1673ffffffffffffffffffffffffffffffffffffffff1681526020019081526020016000206000828254610e039190612394565b925050819055506001600360008473ffffffffffffffffffffffffffffffffffffffff1673ffffffffffffffffffffffffffffffffffffffff1681526020019081526020016000206000828254610e5a91906123c8565b92505081905550816002600083815260200190815260200160002060006101000a81548173ffffffffffffffffffffffffffffffffffffffff021916908373ffffffffffffffffffffffffffffffffffffffff160217905550808273ffffffffffffffffffffffffffffffffffffffff168473ffffffffffffffffffffffffffffffffffffffff167fddf252ad1be2c89b69c2b068fc378daa952ba7f163c4a11628f55a4df523b3ef60405160405180910390a4610f19838383611449565b505050565b8173ffffffffffffffffffffffffffffffffffffffff168373ffffffffffffffffffffffffffffffffffffffff161415610f8d576040517f08c379a0000000000000000000000000000000000000000000000000000000008152600401610f849061246a565b60405180910390fd5b80600560008573ffffffffffffffffffffffffffffffffffffffff1673ffffffffffffffffffffffffffffffffffffffff16815260200190815260200160002060008473ffffffffffffffffffffffffffffffffffffffff1673ffffffffffffffffffffffffffffffffffffffff16815260200190815260200160002060006101000a81548160ff0219169083151502179055508173ffffffffffffffffffffffffffffffffffffffff168373ffffffffffffffffffffffffffffffffffffffff167f17307eab39ab6107e8899845ad3d59bd9653f200f220920489ca2b5937696c318360405161107e91906118c0565b60405180910390a3505050565b611096848484610cb7565b6110a28484848461144e565b6110e1576040517f08c379a00000000000000000000000000000000000000000000000000000000081526004016110d8906124fc565b60405180910390fd5b50505050565b606060405180602001604052806000815250905090565b606061110982610b16565b60006111136110e7565b90506000815111611133576040518060200160405280600081525061115e565b8061113d846115e5565b60405160200161114e92919061221d565b6040516020818303038152906040525b915050919050565b6001816000016000828254019250508190555050565b600081600001549050919050565b600073ffffffffffffffffffffffffffffffffffffffff168273ffffffffffffffffffffffffffffffffffffffff1614156111fa576040517f08c379a00000000000000000000000000000000000000000000000000000000081526004016111f190612568565b60405180910390fd5b611203816113d8565b15611243576040517f08c379a000000000000000000000000000000000000000000000000000000000815260040161123a906125d4565b60405180910390fd5b61124f60008383611444565b6001600360008473ffffffffffffffffffffffffffffffffffffffff1673ffffffffffffffffffffffffffffffffffffffff168152602001908152602001600020600082825461129f91906123c8565b92505081905550816002600083815260200190815260200160002060006101000a81548173ffffffffffffffffffffffffffffffffffffffff021916908373ffffffffffffffffffffffffffffffffffffffff160217905550808273ffffffffffffffffffffffffffffffffffffffff16600073ffffffffffffffffffffffffffffffffffffffff167fddf252ad1be2c89b69c2b068fc378daa952ba7f163c4a11628f55a4df523b3ef60405160405180910390a461136060008383611449565b5050565b61136d826113d8565b6113ac576040517f08c379a00000000000000000000000000000000000000000000000000000000081526004016113a390612666565b60405180910390fd5b806006600084815260200190815260200160002090805190602001906113d3929190611769565b505050565b60008073ffffffffffffffffffffffffffffffffffffffff166002600084815260200190815260200160002060009054906101000a900473ffffffffffffffffffffffffffffffffffffffff1673ffffffffffffffffffffffffffffffffffffffff1614159050919050565b505050565b505050565b600061146f8473ffffffffffffffffffffffffffffffffffffffff16611746565b156115d8578373ffffffffffffffffffffffffffffffffffffffff1663150b7a02611498610b61565b8786866040518563ffffffff1660e01b81526004016114ba94939291906126db565b602060405180830381600087803b1580156114d457600080fd5b505af192505050801561150557506040513d601f19601f82011682018060405250810190611502919061273c565b60015b611588573d8060008114611535576040519150601f19603f3d011682016040523d82523d6000602084013e61153a565b606091505b50600081511415611580576040517f08c379a0000000000000000000000000000000000000000000000000000000008152600401611577906124fc565b60405180910390fd5b805181602001fd5b63150b7a0260e01b7bffffffffffffffffffffffffffffffffffffffffffffffffffffffff1916817bffffffffffffffffffffffffffffffffffffffffffffffffffffffff1916149150506115dd565b600190505b949350505050565b6060600082141561162d576040518060400160405280600181526020017f30000000000000000000000000000000000000000000000000000000000000008152509050611741565b600082905060005b6000821461165f57808061164890612769565b915050600a8261165891906127e1565b9150611635565b60008167ffffffffffffffff81111561167b5761167a611be1565b5b6040519080825280601f01601f1916602001820160405280156116ad5781602001600182028036833780820191505090505b5090505b6000851461173a576001826116c69190612394565b9150600a856116d59190612812565b60306116e191906123c8565b60f81b8183815181106116f7576116f6612843565b5b60200101907effffffffffffffffffffffffffffffffffffffffffffffffffffffffffffff1916908160001a905350600a8561173391906127e1565b94506116b1565b8093505050505b919050565b6000808273ffffffffffffffffffffffffffffffffffffffff163b119050919050565b82805461177590611efb565b90600052602060002090601f01602090048101928261179757600085556117de565b82601f106117b057805160ff19168380011785556117de565b828001600101855582156117de579182015b828111156117dd5782518255916020019190600101906117c2565b5b5090506117eb91906117ef565b5090565b5b808211156118085760008160009055506001016117f0565b5090565b6000604051905090565b600080fd5b600080fd5b60007fffffffff0000000000000000000000000000000000000000000000000000000082169050919050565b61185581611820565b811461186057600080fd5b50565b6000813590506118728161184c565b92915050565b60006020828403121561188e5761188d611816565b5b600061189c84828501611863565b91505092915050565b60008115159050919050565b6118ba816118a5565b82525050565b60006020820190506118d560008301846118b1565b92915050565b600081519050919050565b600082825260208201905092915050565b60005b838110156119155780820151818401526020810190506118fa565b83811115611924576000848401525b50505050565b6000601f19601f8301169050919050565b6000611946826118db565b61195081856118e6565b93506119608185602086016118f7565b6119698161192a565b840191505092915050565b6000602082019050818103600083015261198e818461193b565b905092915050565b6000819050919050565b6119a981611996565b81146119b457600080fd5b50565b6000813590506119c6816119a0565b92915050565b6000602082840312156119e2576119e1611816565b5b60006119f0848285016119b7565b91505092915050565b600073ffffffffffffffffffffffffffffffffffffffff82169050919050565b6000611a24826119f9565b9050919050565b611a3481611a19565b82525050565b6000602082019050611a4f6000830184611a2b565b92915050565b611a5e81611a19565b8114611a6957600080fd5b50565b600081359050611a7b81611a55565b92915050565b60008060408385031215611a9857611a97611816565b5b6000611aa685828601611a6c565b9250506020611ab7858286016119b7565b9150509250929050565b600080600060608486031215611ada57611ad9611816565b5b6000611ae886828701611a6c565b9350506020611af986828701611a6c565b9250506040611b0a868287016119b7565b9150509250925092565b600060208284031215611b2a57611b29611816565b5b6000611b3884828501611a6c565b91505092915050565b611b4a81611996565b82525050565b6000602082019050611b656000830184611b41565b92915050565b611b74816118a5565b8114611b7f57600080fd5b50565b600081359050611b9181611b6b565b92915050565b60008060408385031215611bae57611bad611816565b5b6000611bbc85828601611a6c565b9250506020611bcd85828601611b82565b9150509250929050565b600080fd5b600080fd5b7f4e487b7100000000000000000000000000000000000000000000000000000000600052604160045260246000fd5b611c198261192a565b810181811067ffffffffffffffff82111715611c3857611c37611be1565b5b80604052505050565b6000611c4b61180c565b9050611c578282611c10565b919050565b600067ffffffffffffffff821115611c7757611c76611be1565b5b611c808261192a565b9050602081019050919050565b82818337600083830152505050565b6000611caf611caa84611c5c565b611c41565b905082815260208101848484011115611ccb57611cca611bdc565b5b611cd6848285611c8d565b509392505050565b600082601f830112611cf357611cf2611bd7565b5b8135611d03848260208601611c9c565b91505092915050565b60008060008060808587031215611d2657611d25611816565b5b6000611d3487828801611a6c565b9450506020611d4587828801611a6c565b9350506040611d56878288016119b7565b925050606085013567ffffffffffffffff811115611d7757611d7661181b565b5b611d8387828801611cde565b91505092959194509250565b60008060408385031215611da657611da5611816565b5b6000611db485828601611a6c565b9250506020611dc585828601611a6c565b9150509250929050565b600067ffffffffffffffff821115611dea57611de9611be1565b5b611df38261192a565b9050602081019050919050565b6000611e13611e0e84611dcf565b611c41565b905082815260208101848484011115611e2f57611e2e611bdc565b5b611e3a848285611c8d565b509392505050565b600082601f830112611e5757611e56611bd7565b5b8135611e67848260208601611e00565b91505092915050565b60008060408385031215611e8757611e86611816565b5b6000611e9585828601611a6c565b925050602083013567ffffffffffffffff811115611eb657611eb561181b565b5b611ec285828601611e42565b9150509250929050565b7f4e487b7100000000000000000000000000000000000000000000000000000000600052602260045260246000fd5b60006002820490506001821680611f1357607f821691505b60208210811415611f2757611f26611ecc565b5b50919050565b7f4552433732313a20617070726f76616c20746f2063757272656e74206f776e6560008201527f7200000000000000000000000000000000000000000000000000000000000000602082015250565b6000611f896021836118e6565b9150611f9482611f2d565b604082019050919050565b60006020820190508181036000830152611fb881611f7c565b9050919050565b7f4552433732313a20617070726f76652063616c6c6572206973206e6f7420746f60008201527f6b656e206f776e6572206e6f7220617070726f76656420666f7220616c6c0000602082015250565b600061201b603e836118e6565b915061202682611fbf565b604082019050919050565b6000602082019050818103600083015261204a8161200e565b9050919050565b7f4552433732313a2063616c6c6572206973206e6f7420746f6b656e206f776e6560008201527f72206e6f7220617070726f766564000000000000000000000000000000000000602082015250565b60006120ad602e836118e6565b91506120b882612051565b604082019050919050565b600060208201905081810360008301526120dc816120a0565b9050919050565b7f4552433732313a20696e76616c696420746f6b656e2049440000000000000000600082015250565b60006121196018836118e6565b9150612124826120e3565b602082019050919050565b600060208201905081810360008301526121488161210c565b9050919050565b7f4552433732313a2061646472657373207a65726f206973206e6f74206120766160008201527f6c6964206f776e65720000000000000000000000000000000000000000000000602082015250565b60006121ab6029836118e6565b91506121b68261214f565b604082019050919050565b600060208201905081810360008301526121da8161219e565b9050919050565b600081905092915050565b60006121f7826118db565b61220181856121e1565b93506122118185602086016118f7565b80840191505092915050565b600061222982856121ec565b915061223582846121ec565b91508190509392505050565b7f4552433732313a207472616e736665722066726f6d20696e636f72726563742060008201527f6f776e6572000000000000000000000000000000000000000000000000000000602082015250565b600061229d6025836118e6565b91506122a882612241565b604082019050919050565b600060208201905081810360008301526122cc81612290565b9050919050565b7f4552433732313a207472616e7366657220746f20746865207a65726f2061646460008201527f7265737300000000000000000000000000000000000000000000000000000000602082015250565b600061232f6024836118e6565b915061233a826122d3565b604082019050919050565b6000602082019050818103600083015261235e81612322565b9050919050565b7f4e487b7100000000000000000000000000000000000000000000000000000000600052601160045260246000fd5b600061239f82611996565b91506123aa83611996565b9250828210156123bd576123bc612365565b5b828203905092915050565b60006123d382611996565b91506123de83611996565b9250827fffffffffffffffffffffffffffffffffffffffffffffffffffffffffffffffff0382111561241357612412612365565b5b828201905092915050565b7f4552433732313a20617070726f766520746f2063616c6c657200000000000000600082015250565b60006124546019836118e6565b915061245f8261241e565b602082019050919050565b6000602082019050818103600083015261248381612447565b9050919050565b7f4552433732313a207472616e7366657220746f206e6f6e20455243373231526560008201527f63656976657220696d706c656d656e7465720000000000000000000000000000602082015250565b60006124e66032836118e6565b91506124f18261248a565b604082019050919050565b60006020820190508181036000830152612515816124d9565b9050919050565b7f4552433732313a206d696e7420746f20746865207a65726f2061646472657373600082015250565b60006125526020836118e6565b915061255d8261251c565b602082019050919050565b6000602082019050818103600083015261258181612545565b9050919050565b7f4552433732313a20746f6b656e20616c7265616479206d696e74656400000000600082015250565b60006125be601c836118e6565b91506125c982612588565b602082019050919050565b600060208201905081810360008301526125ed816125b1565b9050919050565b7f45524337323155524953746f726167653a2055524920736574206f66206e6f6e60008201527f6578697374656e7420746f6b656e000000000000000000000000000000000000602082015250565b6000612650602e836118e6565b915061265b826125f4565b604082019050919050565b6000602082019050818103600083015261267f81612643565b9050919050565b600081519050919050565b600082825260208201905092915050565b60006126ad82612686565b6126b78185612691565b93506126c78185602086016118f7565b6126d08161192a565b840191505092915050565b60006080820190506126f06000830187611a2b565b6126fd6020830186611a2b565b61270a6040830185611b41565b818103606083015261271c81846126a2565b905095945050505050565b6000815190506127368161184c565b92915050565b60006020828403121561275257612751611816565b5b600061276084828501612727565b91505092915050565b600061277482611996565b91507fffffffffffffffffffffffffffffffffffffffffffffffffffffffffffffffff8214156127a7576127a6612365565b5b600182019050919050565b7f4e487b7100000000000000000000000000000000000000000000000000000000600052601260045260246000fd5b60006127ec82611996565b91506127f783611996565b925082612807576128066127b2565b5b828204905092915050565b600061281d82611996565b915061282883611996565b925082612838576128376127b2565b5b828206905092915050565b7f4e487b7100000000000000000000000000000000000000000000000000000000600052603260045260246000fdfea2646970667358221220d978a85e60f158635b14e23d2e677cce298f041efa7c418dca02b5da3d340d2164736f6c63430008090033",
  "linkReferences": {},
  "deployedLinkReferences": {}
}